{
  "contractName": "GazaTokenSale",
  "abi": [
    {
      "inputs": [
        {
          "internalType": "contract GazaToken",
          "name": "_tokenContract",
          "type": "address"
        },
        {
          "internalType": "uint256",
          "name": "_tokenPrice",
          "type": "uint256"
        }
      ],
      "stateMutability": "nonpayable",
      "type": "constructor"
    },
    {
      "inputs": [],
      "name": "tokenContract",
      "outputs": [
        {
          "internalType": "contract GazaToken",
          "name": "",
          "type": "address"
        }
      ],
      "stateMutability": "view",
      "type": "function",
      "constant": true
    },
    {
      "inputs": [],
      "name": "tokenPrice",
      "outputs": [
        {
          "internalType": "uint256",
          "name": "",
          "type": "uint256"
        }
      ],
      "stateMutability": "view",
      "type": "function",
      "constant": true
    },
    {
      "inputs": [],
      "name": "tokenSold",
      "outputs": [
        {
          "internalType": "uint256",
          "name": "",
          "type": "uint256"
        }
      ],
      "stateMutability": "view",
      "type": "function",
      "constant": true
    },
    {
      "inputs": [
        {
          "internalType": "uint256",
          "name": "_numberOfTokens",
          "type": "uint256"
        }
      ],
      "name": "buyTokens",
      "outputs": [],
      "stateMutability": "payable",
      "type": "function",
      "payable": true
    }
  ],
  "bytecode": "0x608060405234801561001057600080fd5b506040516104af3803806104af8339818101604052810190610032919061016c565b336000806101000a81548173ffffffffffffffffffffffffffffffffffffffff021916908373ffffffffffffffffffffffffffffffffffffffff16021790555081600160006101000a81548173ffffffffffffffffffffffffffffffffffffffff021916908373ffffffffffffffffffffffffffffffffffffffff1602179055508060028190555050506101ac565b600080fd5b600073ffffffffffffffffffffffffffffffffffffffff82169050919050565b60006100f1826100c6565b9050919050565b6000610103826100e6565b9050919050565b610113816100f8565b811461011e57600080fd5b50565b6000815190506101308161010a565b92915050565b6000819050919050565b61014981610136565b811461015457600080fd5b50565b60008151905061016681610140565b92915050565b60008060408385031215610183576101826100c1565b5b600061019185828601610121565b92505060206101a285828601610157565b9150509250929050565b6102f4806101bb6000396000f3fe60806040526004361061003f5760003560e01c80633610724e14610044578063519ee19e1461006057806355a373d61461008b5780637ff9b596146100b6575b600080fd5b61005e6004803603810190610059919061016a565b6100e1565b005b34801561006c57600080fd5b506100756100fd565b60405161008291906101a6565b60405180910390f35b34801561009757600080fd5b506100a0610103565b6040516100ad9190610240565b60405180910390f35b3480156100c257600080fd5b506100cb610129565b6040516100d891906101a6565b60405180910390f35b80600360008282546100f3919061028a565b9250508190555050565b60035481565b600160009054906101000a900473ffffffffffffffffffffffffffffffffffffffff1681565b60025481565b600080fd5b6000819050919050565b61014781610134565b811461015257600080fd5b50565b6000813590506101648161013e565b92915050565b6000602082840312156101805761017f61012f565b5b600061018e84828501610155565b91505092915050565b6101a081610134565b82525050565b60006020820190506101bb6000830184610197565b92915050565b600073ffffffffffffffffffffffffffffffffffffffff82169050919050565b6000819050919050565b60006102066102016101fc846101c1565b6101e1565b6101c1565b9050919050565b6000610218826101eb565b9050919050565b600061022a8261020d565b9050919050565b61023a8161021f565b82525050565b60006020820190506102556000830184610231565b92915050565b7f4e487b7100000000000000000000000000000000000000000000000000000000600052601160045260246000fd5b600061029582610134565b91506102a083610134565b92508282039050818111156102b8576102b761025b565b5b9291505056fea2646970667358221220c62ff2ec7c33e18ca600457c67228053281210a21835af2cbda96f96db04050164736f6c63430008110033",
  "immutableReferences": {},
  "source": "// SPDX-License-Identifier: GPL-3.0\r\npragma solidity >= 0.7.0 <= 0.9.0;\r\nimport './GazaToken.sol';\r\n\r\ncontract GazaTokenSale {\r\n    address admin;\r\n    GazaToken public tokenContract;\r\n    uint public tokenPrice;\r\n    uint public tokenSold;\r\n\r\n    constructor(GazaToken _tokenContract, uint _tokenPrice) {\r\n        admin = msg.sender;\r\n        tokenContract = _tokenContract;\r\n        tokenPrice = _tokenPrice;\r\n    }\r\n\r\n    function buyTokens(uint _numberOfTokens) public payable {\r\n\r\n        tokenSold -= _numberOfTokens;\r\n\r\n    }\r\n}\r\n",
  "sourcePath": "E:\\blockchain\\gaza_token\\contracts\\GazaTokenSale.sol",
  "compiler": {
    "name": "solc",
    "version": "0.8.17+commit.8df45f5f.Emscripten.clang"
  },
  "schemaVersion": "3.4.11",
  "updatedAt": "2023-03-07T09:24:47.973Z",
  "networkType": "ethereum",
  "devdoc": {
    "kind": "dev",
    "methods": {},
    "version": 1
  },
  "userdoc": {
    "kind": "user",
    "methods": {},
    "version": 1
  }
}